:02000000D92DF8
:10000600313083120313FD00FD0B072800000000AA
:020016000800E0
:080018000000000000000800D8
:10002000163083120313FC006C30FD00FD0B162804
:08003000FC0B1628000008007B
:08003800FA1FF213003008006A
:1000400083160313B11B27288312861329288312D2
:1000500086178316311B2F2883120613312883122B
:1000600006178316B11A372883128612392883128D
:1000700086168316311A3F288312061241288312EE
:1000800006163B18452806154628061186150C202D
:1000900086118316B1194F288312861351288312B3
:1000A000861783163119572883120613592883128D
:1000B00006178316B1185F288312861261288312EF
:1000C0008616831631186728831206126928831250
:1000D00006163B186D2806156E28061186150C208D
:0E00E00086113B1C752810207628032008008E
:1000EE00FB14FB1F8128FF30F300F200F100F0003B
:0800FE00FA0DF20CFF300800BE
:1001060083120313F801F9011030FC00710DF80D8C
:10011600F90D7408F8027508031C750FF902031827
:100126009B287408F80775080318750FF90703105C
:0A013600F00DF10DFC0B8928080004
:0E014000F201F101F001F801F30100300800B6
:10014E007B15FB1FB1280130F300F201F101F00124
:08015E00FA0DF20CFF3008005D
:10016600153083120313FD00FD0BB72800000000B5
:0201760008007F
:10017800A0017208031DD1287108F2007008F1006F
:10018800F001A0157208031DD1287108F200F101D1
:10019800A011201672080319DF282008F302031D96
:1001A800031CE3280310F21BE728F00DF10DF20DF4
:1001B800F30BD728E3280130FC00A020EA280230FE
:0E01C800FC00A720EA280430FC001C200800E0
:1001D600831603132C08F2007208F100F20A2D08A8
:1001E600F000AD0A700884000008F0007108840071
:1001F6007008800071088400000803190329EF289D
:060206002C08F0000800C6
:0E020C00831203133D088A003C08820008009C
:10021A0083160313AF0105302F0203181B292F0879
:10022A002E07840020308000AF0A10292F082E07DD
:10023A0084008001AF032F082E07B0000A30F400B3
:10024A00F5012C08F0002D08F10083207808F00051
:10025A007908F1003030F0078316300884007008FE
:10026A0080000A30F400F5012C08F0002D08F10096
:10027A00832070088316AC007108AD000030710647
:10028A00031D492900307006031D4C294E29AF036E
:04029A00202908000F
:10029E0083120313FA017308031D7A147708031DE2
:1002AE00FA147A0803199B29033A031966297A1856
:1002BE006329F61F99299729F21F97299929720800
:1002CE008039FA00F21376088039F6137A0603198C
:1002DE0074297A0803199729992977087302031943
:1002EE007B29031C8F299329760872020319822910
:1002FE00031C8F2993297508710203198929031C80
:10030E008F2993297408700203199B2903189329C6
:10031E00FA08031999299729FA080319972999298F
:10032E000314080003100800031403150800080046
:10033E0083120313FD01F8017008031900347406CB
:10034E00FA00FA1BFD09FB01F41FAF29F409F40AA8
:10035E00F01FB329F009F00A70087404FA00FA1BB2
:10036E00D7297408F802F00D700DF80D7408F8070F
:10037E00F00D0630FC00700DF80D74087018F802C0
:10038E00701CF807F00DFC0BC229701CF8077B18C7
:10039E00E529FD1F0034F009F00AF809F80A0034C7
:1003AE00F41FE229F01BDF297008F800F001D029B4
:1003BE00F001F00A0034F009FB0AB829F80A7408B3
:1003CE007802031DD029F801F00AF01FD029FF345E
:0203DE00080015
:1003E000831203133B1083162C08B10020203B140A
:0203F000080003
:1003F20083120313FB017308031D77080319502AA4
:1004020072087606FA007708F3077E30031C0D2A7D
:10041200F3020318532A102AF302031C562A720805
:10042200F8007108FC007008FD00F817F6170310B9
:10043200F201F101F0011830A0007D1C2A2A740893
:10044200F00775080318750FF10776080318760F81
:10045200F207F20CF10CF00CF80CFC0CFD0C031082
:10046200A00B1E2AF21B3A2AF80DF00DF10DF20D27
:10047200F3037B1B701C4C2AF81F4C2AF00A031949
:10048200F10A0319F20A031D4C2AF20CF10CF00CCA
:10049200F30A0319532AFA1FF2130030582A0130C3
:1004A200A020582A02307720582A0430A7200000C2
:0204B200080040
:1004B40083160313A501A6012008A7002108A8009C
:1004C40080302106F00080307002031D6B2A00305A
:1004D40020020318792A0130A5000030A600200864
:1004E400003CA7002108031C013EA801A80227081C
:1004F400AC002808AD002208AE000D210630A30090
:100504000030A4002408003C031D8A2A2308003C70
:100514000318A52A23082207F20001302302F00061
:100524000030031C013E2402F100700822078400FD
:100534000008F00072088400700880000130A302F3
:10054400031CA403842A2208840020308000250888
:1005540026040319C32AA301A40123082207840043
:100564000008203A031DBA2AA30A0319A40AAF2AD1
:100574000130A302031CA4032308220784002D30A6
:0405840080000800EB
:1005880083160313AA01AB012008A6002108A700BF
:100598002208A8002308A9002908FF3A031DDE2A1B
:1005A8002808FF3A031DDE2A2708FF3A031DDE2A22
:1005B8002608FF3A031DE82A2408AC002530AD00C0
:1005C800EB200330F000CF2C01308312EF008316AC
:1005D800A81FFB2A80302806F0007008A8008312A4
:1005E800EF0A8316240884002D308000A40A003006
:1005F800F0002906031D0A2B70082806031D0A2B84
:1006080070082706031D0A2B2608003A031D132B22
:100618002408AC002930AD00EB20F001CF2C2908CC
:10062800FF3A031D212B2808003A031D212B270818
:10063800003A031D212B2608003A031D2C2B240801
:10064800AC002130AD00EB2083126F08F000CF2CF6
:100658000030F4000030F5000030F6007F30F7007D
:1006680083162608F0002708F1002808F200290858
:10067800F3004F21013003180030F000700803190F
:10068800622B83162608F0002708F1002808F200DC
:100698002908F3000030F4000030F5002030F6009F
:1006A8008230F700F92170088316A6007108A700A8
:1006B8007208A8007308A900AB032C2B831600301E
:1006C800F4000030F5002030F6008230F7002608EC
:1006D800F0002708F1002808F2002908F3004F214C
:1006E8000130031C0030F00070080319982B8316A2
:1006F8002608F0002708F1002808F2002908F3006E
:10070800CD30F400CC30F5004C30F6007B30F700EB
:10071800F92170088316A6007108A7007208A800BE
:100728007308A900AB0A622B8316FF302605F80070
:10073800FF302705F9007F302805FA000030290529
:10074800FB007808F4007908F5007A08F6007B08C1
:10075800F700F40DF50DF60DF70D741000302605B1
:10076800F00000302705F10000302805F200FF30C6
:100778002905F3007008A6007108A7007208A800F0
:100788007308A90074082604F00075082704F1000E
:1007980076082804F20077082904F3007008A600F8
:1007A8007108A7007208A8007308A9007F30290201
:1007B800F0007008A5000130A9007008F4002608B0
:1007C800F0002708F1002808F2002908F30074084F
:1007D8000319F52BF00DF10DF20DF30D7010FF3E1E
:1007E800EC2B7008A6007108A7007208A80073080F
:1007F800A9002908303EF000240884007008800011
:10080800A40A80302B06F0008030013A7002031CE5
:10081800162C8030063AF00080302B067002031C3C
:10082800162C1D2C240884002E308000A40A0130C8
:10083800AA000630A5002508003A03197B2CA90157
:100848002608F0002708F1002808F2002908F3001C
:10085800F00DF10DF20DF30D7010F00DF10DF20D1C
:10086800F30D70102608F00727080318270FF10763
:1008780028080318280FF20729080318290FF30777
:100888007008A6007108A7007208A8007308A900DC
:100898002608F0002708F1002808F2002908F300CC
:1008A800F00DF10DF20DF30D70107008A60071082F
:1008B800A7007208A8007308A9002908303EF000B4
:1008C8002408840070088000A40A2A08003A031D3E
:1008D800792CAB032B08003A031D792C24088400DB
:1008E8002E308000A40A0130AA00A5031F2CFF3077
:1008F800240784000008303A031D842CA4037B2CB1
:10090800FF302407840000082E3A031D8C2CA40312
:100918002B08003A0319CB2C24088400653080008A
:10092800A40A80302B06F0008030003A70020318C9
:10093800A52C240884002D308000A40A2B08003C34
:10094800AB002B08A5008030093AF00080302B0658
:1009580070020318BC2C0A30F4002508F0009F210F
:100968003030F00783162408840070088000A40A39
:100978000A30F4002508F0009F217808F000303094
:10098800F00783162408840070088000A40A24084D
:0809980084008001F001080059
:1009A000E22C803083160313A000F52CC030A00089
:1009B000F52C9430A000F52CD430A000F52C80301C
:1009C000A000F52C831603132008013A0319D12C3B
:1009D0002008023A0319D62C2008033A0319D92C0F
:1009E0002008043A0319DC2CDF2C2103F000200836
:1009F000F0077008A0007008B10020203B10EF0144
:100A00006F0883162207840000080319112D831232
:100A10006F088316220784000008AC00F021EF0A5B
:080A2000002D83123B140800B5
:100A2800831203137008F8007108F000F101F20155
:100A3800F301FB01FC019630F300FA017008F100A4
:0C0A48007808F000F801F201BC20080062
:100A5400831203139F01C0309F043A09F000700809
:100A640083169F051F179F1783126F08F000F00D60
:100A74007010F00D7010F00D701070089F041F14AA
:100A8400B3201F151F1D482D0000442D1F101E08E4
:100A9400F100F00183161E08F0040030F104080090
:100AA400FF3083120313E600FF30E700FF30E80055
:100AB400FF309F01C0309F043A09F000700883168C
:0C0AC4009F051F179F1783121F140800C6
:100AD0008316031386110611061286120613861357
:100AE0008312861106118613061386120612102031
:100AF000102010208616061686150C208611102050
:100B000086150C208611102086150C2086111020C9
:100B1000061286150C208611102086150C208611D1
:100B20008612861786150C2086111020861306164D
:100B300086150C208611061286150C2086111020B1
:100B400086150C208611061686150C20861110209D
:100B5000061286150C2086118617061786160616AD
:0C0B600086150C20861110203B140800A4
:100B6C0083160313A001200883126F07840000086A
:100B7C000319CC2D8316200883126F0784000008FC
:0E0B8C008316AC00F0218316A00AB92D0800D4
:100B9A0006218A110A128000840ABC0A0319BD0AB6
:080BAA00F003031DCD2D08002E
:100BB2007426831603138701880186010914A9305C
:100BC20083129F00C93083169F0052256825043086
:100BD200FC00E430FD00FD0BEC2DFC0BEC2D0000C5
:100BE2000530EF002A2570088312ED007108EE002F
:100BF20014256830F400E830F5001F30F600773035
:100C0200F700F9217008E9007108EA007208EB00A8
:100C12007308EC0083161E08831287001E088800E2
:100C220070088316A0007108A1007208A200730860
:100C3200A3005230A400C422831203136D0883164A
:100C4200A00083126E088316A1003E30A2005A2231
:100C52000130B100202001308316A0000130A10034
:100C62002B30A200D0245230EF00B625023083167A
:100C72000313A0000130A1003130A200D0243E3085
:100C8200EF00B625103083120313FB003930FC004D
:100C92000D30FD00FD0B4B2EFC0B4B2EFB0B4B2E98
:080CA20000000000E82D542EB3
:100CE800213084001A3083120313F0005A30BC00FC
:080CF8000630BD00CD25080007
:080CB40049344E34463400348B
:080CBC004E3461344E34003463
:040CC4003034003494
:0C0CC80056346F346C3474343A34003409
:100CD400423469346E345F344F34753474343A3486
:020CE4000034DA
:020CE6000F34C9
:02400E004A2F37
:00000001FF
